:100A6F0001180010083132334134353642373839E6
:050A7F00432A3023446E
:030AC200120AC550
:0F0AC500E4FFFE0FBF00010EEF64784E70F522C4
:030B0F00020AC215
:0C0AF400120AC2120AC5120AC5020AC585
:070B0800E4FF0FBF14FC2203
:050AAF00E5182480FFA2
:0E0AB4008F80C290C291D292120B08C2922281
:070A85002518F8A605AF05D6
:0E0A8C008F80D290C291D292120B08C2922299
:1009C3007F80120AB4E4FE74192EF8E6FF120A8C33
:1009D3000EBE14F37FC0120AB4E4FE742D2EF8E6A3
:0909E300FF120A8C0EBE14F3226F
:100AD40030A40930A50630A60320A702D322C322DE
:080B0000120AD440FB020AF4C2
:10092D00D2A7D2A6D2A5D2A4E4FCD2A3D2A2D2A1A0
:10093D00D2A0EC14600E14600F1460102403700E1E
:10094D00C2A0800AC2A18006C2A28002C2A320A4B6
:10095D0004E4FD801C20A5047D01801520A6047DE6
:10096D0002800E20A7047D0380070CBC04BC7F0011
:10097D0022120AF4120B00ED25E025E024082CF8D4
:03098D00E6FF2260
:1009EC00E4FF742D2FF8E6FE74192FF8A6060FBF3E
:1009FC0014F0E4FF7F14782D7420F608DFFC7518D2
:090A0C00141209C37FC0020AB4F0
:10099000E518602E1518E518C3941450097419252C
:1009A00018F87620800774192518F876201209C3E4
:1009B000E518C394145003020AAFE51824ACFF12E3
:0309C0000AB42254
:100A1500E4FF74192FF87620742D2FF876200FBF78
:100A250014F0E4F5187F01120AB4120B0F7F80024F
:020A35000AB401
:100A3700E518D3940040021518E518C39414500321
:0C0A4700020AAFE51824ACFF120AB4222A
:100A5300E518C3942750020518E518C394145003EE
:0C0A6300020AAFE51824ACFF120AB4220E
:100AE400E518C39414400674EC2518F518020AAFEF
:100A9A00E518C39414500674142518F518E518249B
:050AAA00ACFF020AB4DC
:10080000E4FF74192FF87620742D2FF876200FBF8F
:1008100014F0E4F518120AF47F38120AB47F0E12AD
:100820000AB47F06120AB47F01120AB4120B0F7FBA
:1008300080120AB412092DAD07ED60F8BD2A051229
:10084000099080F0BD3005120A1580E8BD2305121D
:1008500009EC80E0BD4105120A3780D8BD4205127F
:100860000A5380D0BD4305120AE480C8BD44051276
:100870000A9A80C0E518B414077FC0120AB4800831
:10088000E518B428031209ECE518C3941450097450
:1008900019120A850518809C7419120A850518809A
:0108A00093C4
:030000000208A152
:0C08A100787FE4F6D8FD7581400208E87D
:1008AD00020800E493A3F8E493A34003F68001F259
:1008BD0008DFF48029E493A3F85407240CC8C3334C
:1008CD00C4540F4420C8834004F456800146F6DF1B
:1008DD00E4800B0102040810204080900A6FE47E32
:1008ED00019360BCA3FF543F30E509541FFEE49310
:1008FD00A360010ECF54C025E060A840B8E493A3D7
:10090D00FAE493A3F8E493A3C8C582C8CAC583CA01
:10091D00F0A3C8C582C8CAC583CADFE9DEE780BEB9
:010A84000071
:00000001FF
