:10000000020003758160116B20B109116B80003013
:10001000B1FD80F4E547B4003511B2312B7107050D
:100020004AE54A7002054BE54BB54902800440D8C9
:100030008009E54AB54802800240CD754A00754BFB
:1000400000E545F543E546F54431A802000830B126
:100050001275800075900071107580FF7590FF71AA
:100060001080EB116B30B1FD0200087580FF7590B8
:10007000FF75B0FF758901758C00758A00D28C758B
:1000800050027570037551017571037552007572D8
:1000900003754203754301754400754501754600BB
:1000A0007547007548C8754900754A00754B005181
:1000B000A222754C00E54CB542028014E54C245058
:1000C000F8E6FCE54C2470F8E6FD11D9054C80E516
:1000D000AC40AD4111D93104227401AE04BE00021E
:1000E0008004231E80F7F4F5807401AE05BE000283
:1000F0008004231E80F7F4F5907E32DEFE7580FFCB
:100100007590FF22900317754C00E54CB403012253
:10011000E54C93FCE54C240393FD11D9ECB40702A4
:10012000800550030C11D9054C80DF20B40BE54449
:10013000B400067545007546FF20B50BE544B400D4
:100140000675450075460120B60BE543B4000675FB
:1001500045FF75460020B70BE543B4000675450121
:1001600075460020B21DE5497009E548B464028077
:10017000124010E548C39414F548E5499400F54948
:1001800030B2FD20B321E549B40102801A4009E5EF
:1001900048B490028011500FE5482414F548E54911
:1001A0003400F54930B3FD22E5502543F54DE570A7
:1001B0002544F54EE54DB40802805E505CE54EB432
:1001C000080280555053754C00E54CB54202802022
:1001D000E54C2450F8E6F54FE54DB54F0FE54C24BE
:1001E00070F8E6F54FE54EB54F02802D054C80D9ED
:1001F000900317754C00E54CB403028020E54C9346
:10020000F54FE54DB54F0EE54C240393F54FE54E04
:10021000B54F028004054C80DD75470122E54DB5E0
:100220004039E54EB541340542E54214F54CE54C04
:10023000B400028058E54C142450F8E6F54FE54C24
:100240002450F8E54FF6E54C142470F8E6F54FE538
:100250004C2470F8E54FF6154C80D3E54214F54C6C
:10026000E54CB400028026E54C142450F8E6F54F26
:10027000E54C2450F8E54FF6E54C142470F8E6F50B
:100280004FE54C2470F8E54FF6154C80D3E54DF55D
:1002900050E54EF570E54DB54007E54EB5410251CC
:1002A000A222E58C258A5407F540E58C258A0303B4
:1002B000035407F541754C00E54CB542028020E53A
:1002C0004C2450F8E6F54FE540B54F0FE54C24704F
:1002D000F8E6F54FE541B54F0280C7054C80D9904F
:1002E0000317754C00E54CB4030122E54C93F54F20
:1002F000E540B54F0EE54C240393F54FE541B54F6E
:1003000002809F054C80DE7B327C64DCFEDBFA22BF
:0D0310007A3C7107DAFC22020506020406A1
:00000001FF
