:10080000F536F536F5FDF729F729F5FDF536F3C28E
:10081000F22AF22AF3C2F536F536F3C2F3C2F53600
:10082000F536F5FDF729F729F5FDF536F3C2F22A7D
:10083000F22AF3C2F536F3C2F22AF22A02020203C6
:100840000302020202020203020203020202030383
:0A0850000202020202020302030486
:1008B600E4FDFCC3ED9FEC9E5015E4FBFA0BBB0078
:1008C600010AEB64784A70F50DBD00010C80E42244
:10089300AD07AC06E4FBFA8C8CEDF58AC28DD28CE5
:1008A300308DFDC28CB2800BBB00010AEB64C84AD9
:0308B30070E522CB
:10085A00758901E4F9E925E02400F582E43408F514
:10086A0083E493FE740193FF120893C280E990080F
:10087A003C9375F032A4FFAEF01208B609B91ED542
:09088A007F907E011208B680CABD
:030000000208D61D
:0C08D600787FE4F6D8FD75810702085A0F
:00000001FF
