:1009270010083132334134353642373839432A30AB
:02093700234457
:03093A0012093D62
:0F093D00E4FFFE0FBF00010EEF64784E70F5224D
:0309930002093A1C
:0C09780012093A12093D12093D02093D26
:07098C00E4FF0FBF14FC2281
:0E095C008F80C290C291D29212098CC2922258
:0E096A008F80D290C291D29212098CC292223A
:10094C0030A40930A50630A60320A702D322C32267
:0809840012094C40FB02097846
:10088C00D2A7D2A6D2A5D2A4E4FCD2A3D2A2D2A142
:10089C00D2A0EC14600E14600F1460102403700EC0
:1008AC00C2A0800AC2A18006C2A28002C2A320A458
:1008BC0004E4FD801C20A5047D01801520A6047D88
:1008CC0002800E20A7047D0380070CBC04BC7F00B3
:1008DC0022120978120984ED25E025E024082CF871
:0308EC00E6FF2202
:1008EF00E4FB1209787F3F12095C7F0E12095C7FCF
:1008FF000112095C1209937F8012095C12088CAEF9
:10090F0007EE60F8EBC3942850F212096A0BBB1480
:08091F00EB7FC012095C80E4CB
:03000000020800F3
:0C080000787FE4F6D8FD758117020847E8
:10080C000208EFE493A3F8E493A34003F68001F20B
:10081C0008DFF48029E493A3F85407240CC8C333ED
:10082C00C4540F4420C8834004F456800146F6DFBC
:10083C00E4800B0102040810204080900927E47E1C
:10084C00019360BCA3FF543F30E509541FFEE493B1
:10085C00A360010ECF54C025E060A840B8E493A378
:10086C00FAE493A3F8E493A3C8C582C8CAC583CAA3
:10087C00F0A3C8C582C8CAC583CADFE9DEE780BE5B
:0109390000BD
:00000001FF
