:10098F00F536F536F5FDF729F729F5FDF536F3C2FE
:10099F00F22AF22AF3C2F536F536F3C2F3C2F53670
:1009AF00F536F5FDF729F729F5FDF536F3C2F22AED
:1009BF00F22AF3C2F536F3C2F22AF22A0202020237
:1009CF0002020202020202020202040202020202F6
:0A09DF0002020202020202020304F7
:0A0A4800010900010800C101C1000E
:03000B000209E9FE
:1009E900C0E0C083C082C0D075D000C004C005205B
:1009F9000105200002B280E50925E0248FF582E493
:100A09003409F583E493FC740193FDECF58CEDF561
:0E0A19008AD005D004D0D0D082D083D0E03275
:03001B00020800D8
:10080000C0E0C0F0C083C082C0D075D000C000C0BE
:1008100004C005C0070508200126200023E5099033
:1008200009CB9375F002A4FFC3E5089FE5F064804F
:10083000F8748098400AD201750800C2800208F05E
:10084000300172E508C39401406BC20175080005D0
:1008500009E50964046029E50964086023E5096481
:100860000C601DE509640F6017E50964136011E56C
:10087000096417600BE509641B6005E509B41E06F1
:10088000D200C280806AE509C3941E400CC28CC2AB
:100890008EC2A9C2ABC2808057E50925E0248FF53E
:1008A00082E43409F583E493FC740193FDECF58C48
:1008B000EDF58A803B300038E508C394064031C22C
:1008C00000750800E509941E400CC28CC28EC2A9B6
:1008D000C2ABC280801AE50925E0248FF582E4349A
:1008E00009F583E493FC740193FDECF58CEDF58A36
:1008F000D007D005D004D000D0D0D082D083D0F0A3
:03090000D0E03212
:100A270075891190098FE493F58CA3E493F58A7582
:100A37008D3C758BB0D2A9D2ABD2AFD28CD28E807F
:010A4700FEB0
:03000000020903EF
:0C090300787FE4F6D8FD75812002094AD7
:10090F00020A27E493A3F8E493A34003F68001F2CD
:10091F0008DFF48029E493A3F85407240CC8C333E9
:10092F00C4540F4420C8834004F456800146F6DFB8
:10093F00E4800B0102040810204080900A48E47EF6
:10094F00019360BCA3FF543F30E509541FFEE493AD
:10095F00A360010ECF54C025E060A840B8E493A374
:10096F00FAE493A3F8E493A3C8C582C8CAC583CA9F
:10097F00F0A3C8C582C8CAC583CADFE9DEE780BE57
:010A520000A3
:00000001FF
