:10080000204D65727279204368726973746D6173EB
:100810002000204861707079204E6577205965610D
:10082000722000205477696E6B6C6520537461727E
:100830002000183C7E183C7EFF18FF81A581A5BDD5
:1008400081FFFF81A58181FF81FF02072270244E75
:10085000E440F729F914F914F9E0F914F8E4F7D0B1
:10086000F7D0F7D0F9E0F9E0FA9AF9E0F914F8E4F2
:10087000F729F729FA9AFA9AFAFEFA9AF9E0F9149E
:10088000F7D0F729F729F7D0F9E0F8E4F9140000D8
:100890000000000000000000F536F536F5FDF729F0
:1008A000F729F5FDF536F3C2F22AF22AF3C2F5363E
:1008B000F536F3C2F3C2F536F536F5FDF729F7291B
:1008C000F5FDF536F3C2F22AF22AF3C2F536F3C289
:1008D000F22AF22A00000000000000000000F22AC4
:1008E000F22AF729F729F7D0F7D0F729F5FDF5FD1A
:1008F000F536F536F3C2F3C2F22AF729F729F5FDEA
:10090000F5FDF536F536F3C2F729F729F5FDF5FDC6
:10091000F536F536F3C2F22AF22AF729F729F7D08D
:10092000F7D0F729F5FDF5FDF536F536F3C2F3C23C
:10093000F22A02020202020202020202020202027F
:100940000202020202020202020202020202020287
:100950000202020202020202020202020202020277
:100960000202020202020202020202020202020267
:100970000202020202020202020203020202020256
:100980000302020202020302020202020302020244
:0909900002020302020202020449
:100E0200012100012600012400C1031827204D659D
:100E1200727279204368726973746D617320000085
:100E22000000000000013F00012500C182012200F4
:070E3200C101012300C18092
:0F0EB000E4FFFE0FBF00010EEF64784E70F522D5
:070EDB00E4FF0FBF14FC222D
:0E0EBF008F80C290C291D292120EDBC292229C
:0E0ECD008F80D290C291D292120EDBC292227E
:100E9C007F38120EBF7F0F120EBF7F06120EBF7F60
:040EAC0001020EBF72
:100DB1007F80120EBFE4F5087B007A007927120EBE
:100DC10087E53F2508FDE433FCCFCDCFCECCCE1255
:100DD100099974272DF8E6FF120ECD0508E508C321
:100DE100941040D47B007A007927120E87E53F24C6
:100DF10001FDE433FCCFCDCFCECCCE1209998D3F8E
:010E010022CE
:100C9500E5210475F0038485F021E4F53FF524C2D0
:100CA50003F523C201E5217012F52678277C00FDA6
:100CB5007BFF7A087900120A9B802BE521B4011489
:100CC50075262478277C007D007BFF7A087912122F
:100CD5000A9B801275264778277C007D007BFF7A6A
:100CE500087923120A9BE52625E02452F582E4348F
:100CF50008F583E493FC740193FDECF58C8D8A2251
:100E700020940F30000C120EB0120EB0209403120A
:070E80000C95A294920022E0
:03000B00020D5D86
:100D5D00C0E0C083C082C0D075D000C004C005E51E
:100D6D002625E02452F582E43408F583740193704E
:100D7D0002E4936003300304C2938002B293E5262C
:100D8D0025E02452F582E43408F583E493FC7401E4
:100D9D0093FDECF58C8D8AD005D004D0D0D082D0C7
:040DAD0083D0E032DD
:03001B00020B26AF
:100B2600C0E0C0F0C083C082C0D075D000C000C095
:100B360001C002C003C004C005C006C007052405E5
:100B4600250522E522C394064005752200B202E57A
:100B560021B4010E0523E523C3940C40057523003B
:100B6600B201E525C3940A4006752500120DB12091
:100B76000320E5269009329375F002A4FFC3E5240D
:100B86009FE5F06480F87480984007D203752400CE
:100B96008056300353E524C39401404CC2037524A8
:100BA600000526E521700AE526D394234003752621
:100BB60000E521B4010AE526D394464003752624B0
:100BC600E521B4020AE526D394704003752647E56D
:100BD6002625E02452F582E43408F583E493FC7478
:100BE6000193FDECF58C8D8AD007D006D005D00494
:100BF600D003D002D001D000D0D0D082D083D0F0A4
:030C0600D0E03209
:100D0500E4FC7401A804088002C333D8FCF4F5B0F0
:100D150020020AE521640160047DFF802CE5217035
:100D250008EC90083293FD8020E521B401153001CF
:100D350008EC90083A93FF8006EC90084293FFADCB
:100D4500078006EC90084A93FDEDF4F5A0120EB06D
:080D550075B0FF0CBC08AB22D5
:100E3A0075B0FF75A0FF7590FF7580FF120E9C7547
:100E4A008911900852E493F58CA3E493F58A758D81
:100E5A003C758BB0D2A9D2ABD2AFD28CD28E120D46
:060E6A0005120E7080F875
:03000000020C09E6
:0C0C0900787FE4F6D8FD75813F020C50A6
:10099900C2D5EC30E709B2D5E4C39DFDE49CFCEE79
:1009A90030E715B2D5E4C39FFFE49EFE120AD1C316
:1009B900E49DFDE49CFC8003120AD130D507C3E411
:0609C9009FFFE49EFE22E8
:1009CF00E709F60870FA8046E709F20870FA803EE8
:1009DF0088828C83E709F0A370FA807EE309F6081A
:1009EF0070FA8076E309F20870FA806E88828C8341
:1009FF00E309F0A370FA806289828A83E0A3F60884
:100A0F0070FA805689828A83E0A3F20870FA804ACE
:100A1F0080D280FA80C680D4806580F280318010C9
:100A2F0080A680EA809A80A880DA80E280CA80312E
:100A3F0089828A83ECFAE493A3C8C582C8CCC583A4
:100A4F00CCF0A3C8C582C8CCC583CC70E9800D8912
:100A5F00828A83E493A3F60870F9ECFAA9F0EDFB10
:100A6F002289828A83ECFAE0A3C8C582C8CCC583E9
:100A7F00CCF0A3C8C582C8CCC583CC70EA80DD8911
:100A8F00828A83E493A3F20870F980CE88F0ED2474
:100A9F0002B4040050C4F582EB2402B4040050BA2F
:090AAF002323458223900A1F73E2
:100E8700E4FFFE120AB8600C0FEF70010E09E9705B
:050E9700F20A80EF22C9
:100C1500020E3AE493A3F8E493A34003F68001F2AD
:100C250008DFF48029E493A3F85407240CC8C333E0
:100C3500C4540F4420C8834004F456800146F6DFAF
:100C4500E4800B0102040810204080900E02E47E2F
:100C5500019360BCA3FF543F30E509541FFEE493A4
:100C6500A360010ECF54C025E060A840B8E493A36B
:100C7500FAE493A3F8E493A3C8C582C8CAC583CA96
:100C8500F0A3C8C582C8CAC583CADFE9DEE780BE4E
:010E390000B8
:100AB800BB010689828A83E0225002E722BBFE023C
:090AC800E32289828A83E493226F
:100AD100BC000BBE0029EF8DF084FFADF022E4CC09
:100AE100F875F008EF2FFFEE33FEEC33FCEE9DECD2
:100AF100984005FCEE9DFE0FD5F0E9E4CEFD22ED18
:100B0100F8F5F0EE8420D21CFEADF075F008EF2F61
:100B1100FFED33FD4007985006D5F0F222C398FD52
:050B21000FD5F0EA22EF
:00000001FF
